{
  "_format": "hh-sol-artifact-1",
  "contractName": "VoterVerification",
  "sourceName": "contracts/VoterVerification.sol",
  "abi": [
    {
      "inputs": [
        {
          "internalType": "address",
          "name": "_owner",
          "type": "address"
        }
      ],
      "stateMutability": "nonpayable",
      "type": "constructor"
    },
    {
      "anonymous": false,
      "inputs": [
        {
          "indexed": true,
          "internalType": "address",
          "name": "previousOwner",
          "type": "address"
        },
        {
          "indexed": true,
          "internalType": "address",
          "name": "newOwner",
          "type": "address"
        }
      ],
      "name": "OwnershipTransferred",
      "type": "event"
    },
    {
      "anonymous": false,
      "inputs": [
        {
          "indexed": true,
          "internalType": "address",
          "name": "voterAddress",
          "type": "address"
        },
        {
          "indexed": false,
          "internalType": "string",
          "name": "name",
          "type": "string"
        }
      ],
      "name": "VoterRegistered",
      "type": "event"
    },
    {
      "anonymous": false,
      "inputs": [
        {
          "indexed": true,
          "internalType": "address",
          "name": "voterAddress",
          "type": "address"
        }
      ],
      "name": "VoterVerified",
      "type": "event"
    },
    {
      "inputs": [
        {
          "internalType": "address[]",
          "name": "_voterAddresses",
          "type": "address[]"
        }
      ],
      "name": "batchVerifyVoters",
      "outputs": [],
      "stateMutability": "nonpayable",
      "type": "function"
    },
    {
      "inputs": [
        {
          "internalType": "address",
          "name": "_voterAddress",
          "type": "address"
        }
      ],
      "name": "getVoterInfo",
      "outputs": [
        {
          "internalType": "string",
          "name": "name",
          "type": "string"
        },
        {
          "internalType": "bool",
          "name": "isRegistered",
          "type": "bool"
        },
        {
          "internalType": "bool",
          "name": "isVerified",
          "type": "bool"
        },
        {
          "internalType": "uint256",
          "name": "registrationTime",
          "type": "uint256"
        }
      ],
      "stateMutability": "view",
      "type": "function"
    },
    {
      "inputs": [
        {
          "internalType": "address",
          "name": "_voterAddress",
          "type": "address"
        }
      ],
      "name": "isVoterVerified",
      "outputs": [
        {
          "internalType": "bool",
          "name": "",
          "type": "bool"
        }
      ],
      "stateMutability": "view",
      "type": "function"
    },
    {
      "inputs": [],
      "name": "owner",
      "outputs": [
        {
          "internalType": "address",
          "name": "",
          "type": "address"
        }
      ],
      "stateMutability": "view",
      "type": "function"
    },
    {
      "inputs": [
        {
          "internalType": "string",
          "name": "_name",
          "type": "string"
        },
        {
          "internalType": "string",
          "name": "_nationalId",
          "type": "string"
        }
      ],
      "name": "registerVoter",
      "outputs": [],
      "stateMutability": "nonpayable",
      "type": "function"
    },
    {
      "inputs": [],
      "name": "renounceOwnership",
      "outputs": [],
      "stateMutability": "nonpayable",
      "type": "function"
    },
    {
      "inputs": [],
      "name": "totalRegisteredVoters",
      "outputs": [
        {
          "internalType": "uint256",
          "name": "",
          "type": "uint256"
        }
      ],
      "stateMutability": "view",
      "type": "function"
    },
    {
      "inputs": [],
      "name": "totalVerifiedVoters",
      "outputs": [
        {
          "internalType": "uint256",
          "name": "",
          "type": "uint256"
        }
      ],
      "stateMutability": "view",
      "type": "function"
    },
    {
      "inputs": [
        {
          "internalType": "address",
          "name": "newOwner",
          "type": "address"
        }
      ],
      "name": "transferOwnership",
      "outputs": [],
      "stateMutability": "nonpayable",
      "type": "function"
    },
    {
      "inputs": [
        {
          "internalType": "address",
          "name": "_voterAddress",
          "type": "address"
        }
      ],
      "name": "verifyVoter",
      "outputs": [],
      "stateMutability": "nonpayable",
      "type": "function"
    },
    {
      "inputs": [
        {
          "internalType": "address",
          "name": "",
          "type": "address"
        }
      ],
      "name": "voters",
      "outputs": [
        {
          "internalType": "bool",
          "name": "isRegistered",
          "type": "bool"
        },
        {
          "internalType": "string",
          "name": "name",
          "type": "string"
        },
        {
          "internalType": "string",
          "name": "nationalId",
          "type": "string"
        },
        {
          "internalType": "bool",
          "name": "isVerified",
          "type": "bool"
        },
        {
          "internalType": "uint256",
          "name": "registrationTime",
          "type": "uint256"
        }
      ],
      "stateMutability": "view",
      "type": "function"
    }
  ],
  "bytecode": "0x608060405234801561001057600080fd5b506040516110af3803806110af83398101604081905261002f91610171565b61003833610047565b61004181610097565b506101a1565b600080546001600160a01b038381166001600160a01b0319831681178455604051919092169283917f8be0079c531659141344cd1fd0a4f28419497f9722a3daafe3b4186f6b6457e09190a35050565b61009f610115565b6001600160a01b0381166101095760405162461bcd60e51b815260206004820152602660248201527f4f776e61626c653a206e6577206f776e657220697320746865207a65726f206160448201526564647265737360d01b60648201526084015b60405180910390fd5b61011281610047565b50565b6000546001600160a01b0316331461016f5760405162461bcd60e51b815260206004820181905260248201527f4f776e61626c653a2063616c6c6572206973206e6f7420746865206f776e65726044820152606401610100565b565b60006020828403121561018357600080fd5b81516001600160a01b038116811461019a57600080fd5b9392505050565b610eff806101b06000396000f3fe608060405234801561001057600080fd5b50600436106100a85760003560e01c806388840a2e1161007157806388840a2e146101125780638a4c8847146101255780638da5cb5b146101385780639ed1f25514610153578063a3ec138d14610176578063f2fde38b1461019a57600080fd5b8062aa7464146100ad57806309bd0950146100c95780632dae914d146100de5780633ce3b25d146100e7578063715018a61461010a575b600080fd5b6100b660035481565b6040519081526020015b60405180910390f35b6100dc6100d7366004610a5e565b6101ad565b005b6100b660045481565b6100fa6100f5366004610a5e565b6102f0565b60405190151581526020016100c0565b6100dc610339565b6100dc610120366004610ac7565b61034d565b6100dc610133366004610beb565b61044b565b6000546040516001600160a01b0390911681526020016100c0565b610166610161366004610a5e565b61063a565b6040516100c09493929190610ca4565b610189610184366004610a5e565b6107d7565b6040516100c0959493929190610cd3565b6100dc6101a8366004610a5e565b61091f565b6101b5610998565b6001600160a01b03811660009081526001602052604090205460ff166102195760405162461bcd60e51b8152602060048201526014602482015273159bdd195c881b9bdd081c9959da5cdd195c995960621b60448201526064015b60405180910390fd5b6001600160a01b03811660009081526001602052604090206003015460ff161561027e5760405162461bcd60e51b8152602060048201526016602482015275159bdd195c88185b1c9958591e481d995c9a599a595960521b6044820152606401610210565b6001600160a01b03811660009081526001602081905260408220600301805460ff1916909117905560048054916102b483610d15565b90915550506040516001600160a01b038216907f73d35f4b5dc2339683083dec639ba37f0f5592fc26de0e0603ac5ba2412cd00490600090a250565b6001600160a01b03811660009081526001602052604081205460ff16801561033357506001600160a01b03821660009081526001602052604090206003015460ff165b92915050565b610341610998565b61034b60006109f2565b565b610355610998565b60005b815181101561044757600082828151811061037557610375610d3c565b6020908102919091018101516001600160a01b0381166000908152600190925260409091205490915060ff1680156103c957506001600160a01b03811660009081526001602052604090206003015460ff16155b1561043e576001600160a01b03811660009081526001602081905260408220600301805460ff19169091179055600480549161040483610d15565b90915550506040516001600160a01b038216907f73d35f4b5dc2339683083dec639ba37f0f5592fc26de0e0603ac5ba2412cd00490600090a25b50600101610358565b5050565b3360009081526001602052604090205460ff16156104ab5760405162461bcd60e51b815260206004820152601860248201527f566f74657220616c7265616479207265676973746572656400000000000000006044820152606401610210565b6002816040516104bb9190610d52565b9081526040519081900360200190205460ff161561051b5760405162461bcd60e51b815260206004820152601860248201527f4e6174696f6e616c20494420616c7265616479207573656400000000000000006044820152606401610210565b6040805160a08101825260018082526020808301868152838501869052600060608501819052426080860152338152918390529390208251815460ff19169015151781559251919291908201906105729082610df7565b50604082015160028201906105879082610df7565b50606082015160038201805460ff19169115159190911790556080909101516004909101556040516001906002906105c0908490610d52565b908152604051908190036020019020805491151560ff19909216919091179055600380549060006105f083610d15565b9190505550336001600160a01b03167fffeb7702be7dcd8fee170d954b70afb9a7c78f7f5cff232d037e7b9d8243356a8360405161062e9190610eb6565b60405180910390a25050565b6001600160a01b0381166000908152600160208181526040808420815160a08101909252805460ff161515825292830180546060959485948594859490939184019161068590610d6e565b80601f01602080910402602001604051908101604052809291908181526020018280546106b190610d6e565b80156106fe5780601f106106d3576101008083540402835291602001916106fe565b820191906000526020600020905b8154815290600101906020018083116106e157829003601f168201915b5050505050815260200160028201805461071790610d6e565b80601f016020809104026020016040519081016040528092919081815260200182805461074390610d6e565b80156107905780601f1061076557610100808354040283529160200191610790565b820191906000526020600020905b81548152906001019060200180831161077357829003601f168201915b5050509183525050600382015460ff161515602080830191909152600490920154604090910152810151815160608301516080909301519199909850919650945092505050565b60016020819052600091825260409091208054918101805460ff909316926107fe90610d6e565b80601f016020809104026020016040519081016040528092919081815260200182805461082a90610d6e565b80156108775780601f1061084c57610100808354040283529160200191610877565b820191906000526020600020905b81548152906001019060200180831161085a57829003601f168201915b50505050509080600201805461088c90610d6e565b80601f01602080910402602001604051908101604052809291908181526020018280546108b890610d6e565b80156109055780601f106108da57610100808354040283529160200191610905565b820191906000526020600020905b8154815290600101906020018083116108e857829003601f168201915b505050506003830154600490930154919260ff1691905085565b610927610998565b6001600160a01b03811661098c5760405162461bcd60e51b815260206004820152602660248201527f4f776e61626c653a206e6577206f776e657220697320746865207a65726f206160448201526564647265737360d01b6064820152608401610210565b610995816109f2565b50565b6000546001600160a01b0316331461034b5760405162461bcd60e51b815260206004820181905260248201527f4f776e61626c653a2063616c6c6572206973206e6f7420746865206f776e65726044820152606401610210565b600080546001600160a01b038381166001600160a01b0319831681178455604051919092169283917f8be0079c531659141344cd1fd0a4f28419497f9722a3daafe3b4186f6b6457e09190a35050565b80356001600160a01b0381168114610a5957600080fd5b919050565b600060208284031215610a7057600080fd5b610a7982610a42565b9392505050565b634e487b7160e01b600052604160045260246000fd5b604051601f8201601f1916810167ffffffffffffffff81118282101715610abf57610abf610a80565b604052919050565b600060208284031215610ad957600080fd5b813567ffffffffffffffff811115610af057600080fd5b8201601f81018413610b0157600080fd5b803567ffffffffffffffff811115610b1b57610b1b610a80565b8060051b610b2b60208201610a96565b91825260208184018101929081019087841115610b4757600080fd5b6020850194505b83851015610b7057610b5f85610a42565b825260209485019490910190610b4e565b979650505050505050565b600082601f830112610b8c57600080fd5b813567ffffffffffffffff811115610ba657610ba6610a80565b610bb9601f8201601f1916602001610a96565b818152846020838601011115610bce57600080fd5b816020850160208301376000918101602001919091529392505050565b60008060408385031215610bfe57600080fd5b823567ffffffffffffffff811115610c1557600080fd5b610c2185828601610b7b565b925050602083013567ffffffffffffffff811115610c3e57600080fd5b610c4a85828601610b7b565b9150509250929050565b60005b83811015610c6f578181015183820152602001610c57565b50506000910152565b60008151808452610c90816020860160208601610c54565b601f01601f19169290920160200192915050565b608081526000610cb76080830187610c78565b9415156020830152509115156040830152606090910152919050565b851515815260a060208201526000610cee60a0830187610c78565b8281036040840152610d008187610c78565b94151560608401525050608001529392505050565b600060018201610d3557634e487b7160e01b600052601160045260246000fd5b5060010190565b634e487b7160e01b600052603260045260246000fd5b60008251610d64818460208701610c54565b9190910192915050565b600181811c90821680610d8257607f821691505b602082108103610da257634e487b7160e01b600052602260045260246000fd5b50919050565b601f821115610df257806000526020600020601f840160051c81016020851015610dcf5750805b601f840160051c820191505b81811015610def5760008155600101610ddb565b50505b505050565b815167ffffffffffffffff811115610e1157610e11610a80565b610e2581610e1f8454610d6e565b84610da8565b6020601f821160018114610e595760008315610e415750848201515b600019600385901b1c1916600184901b178455610def565b600084815260208120601f198516915b82811015610e895787850151825560209485019460019092019101610e69565b5084821015610ea75786840151600019600387901b60f8161c191681555b50505050600190811b01905550565b602081526000610a796020830184610c7856fea2646970667358221220e899beda518554254e751c97c793c6cf5f428f55a8c98cabb4e8f0a9de82e56c64736f6c634300081c0033",
  "linkReferences": {},
  "deployedLinkReferences": {}
}