{
  "_format": "hh-sol-artifact-1",
  "contractName": "Voting",
  "sourceName": "contracts/Voting.sol",
  "abi": [
    {
      "inputs": [
        {
          "internalType": "string",
          "name": "_electionName",
          "type": "string"
        },
        {
          "internalType": "string",
          "name": "_electionDescription",
          "type": "string"
        },
        {
          "internalType": "address",
          "name": "_owner",
          "type": "address"
        }
      ],
      "stateMutability": "nonpayable",
      "type": "constructor"
    },
    {
      "anonymous": false,
      "inputs": [
        {
          "indexed": false,
          "internalType": "uint256",
          "name": "candidateId",
          "type": "uint256"
        },
        {
          "indexed": false,
          "internalType": "string",
          "name": "name",
          "type": "string"
        },
        {
          "indexed": false,
          "internalType": "string",
          "name": "party",
          "type": "string"
        }
      ],
      "name": "CandidateAdded",
      "type": "event"
    },
    {
      "anonymous": false,
      "inputs": [
        {
          "indexed": false,
          "internalType": "uint256",
          "name": "endTime",
          "type": "uint256"
        },
        {
          "indexed": false,
          "internalType": "uint256",
          "name": "totalVotes",
          "type": "uint256"
        }
      ],
      "name": "ElectionEnded",
      "type": "event"
    },
    {
      "anonymous": false,
      "inputs": [
        {
          "indexed": false,
          "internalType": "uint256",
          "name": "startTime",
          "type": "uint256"
        },
        {
          "indexed": false,
          "internalType": "uint256",
          "name": "endTime",
          "type": "uint256"
        }
      ],
      "name": "ElectionStarted",
      "type": "event"
    },
    {
      "anonymous": false,
      "inputs": [
        {
          "indexed": true,
          "internalType": "address",
          "name": "previousOwner",
          "type": "address"
        },
        {
          "indexed": true,
          "internalType": "address",
          "name": "newOwner",
          "type": "address"
        }
      ],
      "name": "OwnershipTransferred",
      "type": "event"
    },
    {
      "anonymous": false,
      "inputs": [
        {
          "indexed": true,
          "internalType": "address",
          "name": "voter",
          "type": "address"
        },
        {
          "indexed": false,
          "internalType": "uint256",
          "name": "candidateId",
          "type": "uint256"
        }
      ],
      "name": "VoteCast",
      "type": "event"
    },
    {
      "inputs": [
        {
          "internalType": "string",
          "name": "_name",
          "type": "string"
        },
        {
          "internalType": "string",
          "name": "_party",
          "type": "string"
        },
        {
          "internalType": "string",
          "name": "_imageUrl",
          "type": "string"
        }
      ],
      "name": "addCandidate",
      "outputs": [],
      "stateMutability": "nonpayable",
      "type": "function"
    },
    {
      "inputs": [],
      "name": "candidateCount",
      "outputs": [
        {
          "internalType": "uint256",
          "name": "",
          "type": "uint256"
        }
      ],
      "stateMutability": "view",
      "type": "function"
    },
    {
      "inputs": [
        {
          "internalType": "uint256",
          "name": "",
          "type": "uint256"
        }
      ],
      "name": "candidates",
      "outputs": [
        {
          "internalType": "uint256",
          "name": "id",
          "type": "uint256"
        },
        {
          "internalType": "string",
          "name": "name",
          "type": "string"
        },
        {
          "internalType": "string",
          "name": "party",
          "type": "string"
        },
        {
          "internalType": "string",
          "name": "imageUrl",
          "type": "string"
        },
        {
          "internalType": "uint256",
          "name": "voteCount",
          "type": "uint256"
        }
      ],
      "stateMutability": "view",
      "type": "function"
    },
    {
      "inputs": [
        {
          "internalType": "uint256",
          "name": "_candidateId",
          "type": "uint256"
        }
      ],
      "name": "castVote",
      "outputs": [],
      "stateMutability": "nonpayable",
      "type": "function"
    },
    {
      "inputs": [],
      "name": "electionDescription",
      "outputs": [
        {
          "internalType": "string",
          "name": "",
          "type": "string"
        }
      ],
      "stateMutability": "view",
      "type": "function"
    },
    {
      "inputs": [],
      "name": "electionName",
      "outputs": [
        {
          "internalType": "string",
          "name": "",
          "type": "string"
        }
      ],
      "stateMutability": "view",
      "type": "function"
    },
    {
      "inputs": [],
      "name": "endElection",
      "outputs": [],
      "stateMutability": "nonpayable",
      "type": "function"
    },
    {
      "inputs": [],
      "name": "endTime",
      "outputs": [
        {
          "internalType": "uint256",
          "name": "",
          "type": "uint256"
        }
      ],
      "stateMutability": "view",
      "type": "function"
    },
    {
      "inputs": [
        {
          "internalType": "uint256",
          "name": "_candidateId",
          "type": "uint256"
        }
      ],
      "name": "getCandidate",
      "outputs": [
        {
          "internalType": "uint256",
          "name": "id",
          "type": "uint256"
        },
        {
          "internalType": "string",
          "name": "name",
          "type": "string"
        },
        {
          "internalType": "string",
          "name": "party",
          "type": "string"
        },
        {
          "internalType": "string",
          "name": "imageUrl",
          "type": "string"
        },
        {
          "internalType": "uint256",
          "name": "voteCount",
          "type": "uint256"
        }
      ],
      "stateMutability": "view",
      "type": "function"
    },
    {
      "inputs": [],
      "name": "getElectionResults",
      "outputs": [
        {
          "internalType": "uint256[]",
          "name": "ids",
          "type": "uint256[]"
        },
        {
          "internalType": "string[]",
          "name": "names",
          "type": "string[]"
        },
        {
          "internalType": "string[]",
          "name": "parties",
          "type": "string[]"
        },
        {
          "internalType": "uint256[]",
          "name": "voteCounts",
          "type": "uint256[]"
        }
      ],
      "stateMutability": "view",
      "type": "function"
    },
    {
      "inputs": [],
      "name": "hasEnded",
      "outputs": [
        {
          "internalType": "bool",
          "name": "",
          "type": "bool"
        }
      ],
      "stateMutability": "view",
      "type": "function"
    },
    {
      "inputs": [],
      "name": "isActive",
      "outputs": [
        {
          "internalType": "bool",
          "name": "",
          "type": "bool"
        }
      ],
      "stateMutability": "view",
      "type": "function"
    },
    {
      "inputs": [],
      "name": "owner",
      "outputs": [
        {
          "internalType": "address",
          "name": "",
          "type": "address"
        }
      ],
      "stateMutability": "view",
      "type": "function"
    },
    {
      "inputs": [
        {
          "internalType": "address",
          "name": "_voter",
          "type": "address"
        }
      ],
      "name": "registerVoter",
      "outputs": [],
      "stateMutability": "nonpayable",
      "type": "function"
    },
    {
      "inputs": [],
      "name": "renounceOwnership",
      "outputs": [],
      "stateMutability": "nonpayable",
      "type": "function"
    },
    {
      "inputs": [
        {
          "internalType": "uint256",
          "name": "_durationInMinutes",
          "type": "uint256"
        }
      ],
      "name": "startElection",
      "outputs": [],
      "stateMutability": "nonpayable",
      "type": "function"
    },
    {
      "inputs": [],
      "name": "startTime",
      "outputs": [
        {
          "internalType": "uint256",
          "name": "",
          "type": "uint256"
        }
      ],
      "stateMutability": "view",
      "type": "function"
    },
    {
      "inputs": [],
      "name": "totalVotes",
      "outputs": [
        {
          "internalType": "uint256",
          "name": "",
          "type": "uint256"
        }
      ],
      "stateMutability": "view",
      "type": "function"
    },
    {
      "inputs": [
        {
          "internalType": "address",
          "name": "newOwner",
          "type": "address"
        }
      ],
      "name": "transferOwnership",
      "outputs": [],
      "stateMutability": "nonpayable",
      "type": "function"
    },
    {
      "inputs": [
        {
          "internalType": "address",
          "name": "",
          "type": "address"
        }
      ],
      "name": "voters",
      "outputs": [
        {
          "internalType": "bool",
          "name": "isRegistered",
          "type": "bool"
        },
        {
          "internalType": "bool",
          "name": "hasVoted",
          "type": "bool"
        },
        {
          "internalType": "uint256",
          "name": "votedCandidateId",
          "type": "uint256"
        }
      ],
      "stateMutability": "view",
      "type": "function"
    }
  ],
  "bytecode": "0x608060405234801561001057600080fd5b50604051611cd9380380611cd983398101604081905261002f91610254565b61003833610071565b6001805560026100488482610368565b5060036100558382610368565b506006805460ff19169055610069816100c1565b505050610426565b600080546001600160a01b038381166001600160a01b0319831681178455604051919092169283917f8be0079c531659141344cd1fd0a4f28419497f9722a3daafe3b4186f6b6457e09190a35050565b6100c961013f565b6001600160a01b0381166101335760405162461bcd60e51b815260206004820152602660248201527f4f776e61626c653a206e6577206f776e657220697320746865207a65726f206160448201526564647265737360d01b60648201526084015b60405180910390fd5b61013c81610071565b50565b6000546001600160a01b031633146101995760405162461bcd60e51b815260206004820181905260248201527f4f776e61626c653a2063616c6c6572206973206e6f7420746865206f776e6572604482015260640161012a565b565b634e487b7160e01b600052604160045260246000fd5b600082601f8301126101c257600080fd5b81516001600160401b038111156101db576101db61019b565b604051601f8201601f19908116603f011681016001600160401b03811182821017156102095761020961019b565b60405281815283820160200185101561022157600080fd5b60005b8281101561024057602081860181015183830182015201610224565b506000918101602001919091529392505050565b60008060006060848603121561026957600080fd5b83516001600160401b0381111561027f57600080fd5b61028b868287016101b1565b602086015190945090506001600160401b038111156102a957600080fd5b6102b5868287016101b1565b604086015190935090506001600160a01b03811681146102d457600080fd5b809150509250925092565b600181811c908216806102f357607f821691505b60208210810361031357634e487b7160e01b600052602260045260246000fd5b50919050565b601f82111561036357806000526020600020601f840160051c810160208510156103405750805b601f840160051c820191505b81811015610360576000815560010161034c565b50505b505050565b81516001600160401b038111156103815761038161019b565b6103958161038f84546102df565b84610319565b6020601f8211600181146103c957600083156103b15750848201515b600019600385901b1c1916600184901b178455610360565b600084815260208120601f198516915b828110156103f957878501518255602094850194600190920191016103d9565b50848210156104175786840151600019600387901b60f8161c191681555b50505050600190811b01905550565b6118a4806104356000396000f3fe608060405234801561001057600080fd5b506004361061012c5760003560e01c8063715018a6116100ad578063a9a981a311610071578063a9a981a314610287578063ad71f8dc14610290578063ecb70fb7146102a3578063eccf1f10146102ab578063f2fde38b146102c357600080fd5b8063715018a61461020257806378e979251461020a57806385e8e7a7146102135780638da5cb5b1461021b578063a3ec138d1461023657600080fd5b806338db6dd3116100f457806338db6dd3146101aa5780633eb76b9c146101bf57806349a2b603146101d257806359f78468146101e75780636d32dc4b146101ef57600080fd5b80630d15fd771461013157806322f3e2d41461014d5780633197cbb61461016a5780633477ee2e1461017357806335b8e82014610197575b600080fd5b61013a600a5481565b6040519081526020015b60405180910390f35b60065461015a9060ff1681565b6040519015158152602001610144565b61013a60055481565b61018661018136600461134c565b6102d6565b6040516101449594939291906113ab565b6101866101a536600461134c565b61049d565b6101bd6101b83660046113fd565b610713565b005b6101bd6101cd36600461134c565b6107a9565b6101da6109f5565b604051610144919061142d565b6101bd610a83565b6101bd6101fd36600461134c565b610b2a565b6101bd610c49565b61013a60045481565b6101da610c5d565b6000546040516001600160a01b039091168152602001610144565b61026a6102443660046113fd565b6009602052600090815260409020805460019091015460ff808316926101009004169083565b604080519315158452911515602084015290820152606001610144565b61013a60085481565b6101bd61029e3660046114e5565b610c6a565b61015a610dbd565b6102b3610dd8565b6040516101449493929190611611565b6101bd6102d13660046113fd565b6111d3565b600760205260009081526040902080546001820180549192916102f890611669565b80601f016020809104026020016040519081016040528092919081815260200182805461032490611669565b80156103715780601f1061034657610100808354040283529160200191610371565b820191906000526020600020905b81548152906001019060200180831161035457829003601f168201915b50505050509080600201805461038690611669565b80601f01602080910402602001604051908101604052809291908181526020018280546103b290611669565b80156103ff5780601f106103d4576101008083540402835291602001916103ff565b820191906000526020600020905b8154815290600101906020018083116103e257829003601f168201915b50505050509080600301805461041490611669565b80601f016020809104026020016040519081016040528092919081815260200182805461044090611669565b801561048d5780601f106104625761010080835404028352916020019161048d565b820191906000526020600020905b81548152906001019060200180831161047057829003601f168201915b5050505050908060040154905085565b60006060806060600080861180156104b757506008548611155b6104ff5760405162461bcd60e51b8152602060048201526014602482015273125b9d985b1a590818d85b991a59185d1948125160621b60448201526064015b60405180910390fd5b6000600760008881526020019081526020016000206040518060a00160405290816000820154815260200160018201805461053990611669565b80601f016020809104026020016040519081016040528092919081815260200182805461056590611669565b80156105b25780601f10610587576101008083540402835291602001916105b2565b820191906000526020600020905b81548152906001019060200180831161059557829003601f168201915b505050505081526020016002820180546105cb90611669565b80601f01602080910402602001604051908101604052809291908181526020018280546105f790611669565b80156106445780601f1061061957610100808354040283529160200191610644565b820191906000526020600020905b81548152906001019060200180831161062757829003601f168201915b5050505050815260200160038201805461065d90611669565b80601f016020809104026020016040519081016040528092919081815260200182805461068990611669565b80156106d65780601f106106ab576101008083540402835291602001916106d6565b820191906000526020600020905b8154815290600101906020018083116106b957829003601f168201915b50505091835250506004919091015460209182015281519082015160408301516060840151608090940151929b919a509850919650945092505050565b61071b611249565b6001600160a01b03811660009081526009602052604090205460ff16156107845760405162461bcd60e51b815260206004820152601b60248201527f566f74657220697320616c72656164792072656769737465726564000000000060448201526064016104f6565b6001600160a01b03166000908152600960205260409020805461ffff19166001179055565b6107b16112a3565b60065460ff166107fc5760405162461bcd60e51b8152602060048201526016602482015275456c656374696f6e206973206e6f742061637469766560501b60448201526064016104f6565b6005544211156108435760405162461bcd60e51b8152602060048201526012602482015271115b1958dd1a5bdb881a185cc8195b99195960721b60448201526064016104f6565b3360009081526009602052604090205460ff166108a25760405162461bcd60e51b815260206004820152601760248201527f566f746572206973206e6f74207265676973746572656400000000000000000060448201526064016104f6565b33600090815260096020526040902054610100900460ff16156109075760405162461bcd60e51b815260206004820152601760248201527f566f7465722068617320616c726561647920766f74656400000000000000000060448201526064016104f6565b60008111801561091957506008548111155b61095c5760405162461bcd60e51b8152602060048201526014602482015273125b9d985b1a590818d85b991a59185d1948125160621b60448201526064016104f6565b336000908152600960209081526040808320805461ff0019166101001781556001018490558383526007909152812060040180549161099a836116b9565b9091555050600a80549060006109af836116b9565b909155505060405181815233907fa36cc2bebb74db33e9f88110a07ef56e1b31b24b4c4f51b54b1664266e29f45b9060200160405180910390a26109f260018055565b50565b60038054610a0290611669565b80601f0160208091040260200160405190810160405280929190818152602001828054610a2e90611669565b8015610a7b5780601f10610a5057610100808354040283529160200191610a7b565b820191906000526020600020905b815481529060010190602001808311610a5e57829003601f168201915b505050505081565b610a8b611249565b60065460ff16610ad65760405162461bcd60e51b8152602060048201526016602482015275456c656374696f6e206973206e6f742061637469766560501b60448201526064016104f6565b6006805460ff19169055426005819055600a546040517f32e2c12037f9600b91a766ce53eab6909f3bdb865851cd9a8c7fafbdf249a9ce92610b2092908252602082015260400190565b60405180910390a1565b610b32611249565b60065460ff1615610b855760405162461bcd60e51b815260206004820152601c60248201527f456c656374696f6e2068617320616c726561647920737461727465640000000060448201526064016104f6565b600160085411610bd75760405162461bcd60e51b815260206004820152601c60248201527f4e656564206174206c656173742074776f2063616e646964617465730000000060448201526064016104f6565b42600455610be681603c6116d2565b600454610bf391906116ef565b60058190556006805460ff191660011790556004546040517fff6a30dd22f5e8b783044c7d895a6e8592b55c56f139978d44dc39daf596731f92610c3e928252602082015260400190565b60405180910390a150565b610c51611249565b610c5b60006112fc565b565b60028054610a0290611669565b610c72611249565b60065460ff1615610cdd5760405162461bcd60e51b815260206004820152602f60248201527f43616e6e6f74206164642063616e64696461746520616674657220656c65637460448201526e1a5bdb881a185cc81cdd185c9d1959608a1b60648201526084016104f6565b60088054906000610ced836116b9565b90915550506040805160a08101825260085480825260208083018781528385018790526060840186905260006080850181905292835260079091529290208151815591519091906001820190610d439082611751565b5060408201516002820190610d589082611751565b5060608201516003820190610d6d9082611751565b50608082015181600401559050507fe64f834082661dd9ed89427b87edb6270fd6dad17198b0938f0edd058914c87f6008548484604051610db093929190611810565b60405180910390a1505050565b60065460009060ff168015610dd3575060055442115b905090565b60608060608060085467ffffffffffffffff811115610df957610df9611440565b604051908082528060200260200182016040528015610e22578160200160208202803683370190505b50935060085467ffffffffffffffff811115610e4057610e40611440565b604051908082528060200260200182016040528015610e7357816020015b6060815260200190600190039081610e5e5790505b50925060085467ffffffffffffffff811115610e9157610e91611440565b604051908082528060200260200182016040528015610ec457816020015b6060815260200190600190039081610eaf5790505b50915060085467ffffffffffffffff811115610ee257610ee2611440565b604051908082528060200260200182016040528015610f0b578160200160208202803683370190505b50905060015b60085481116111cc576000600760008381526020019081526020016000206040518060a001604052908160008201548152602001600182018054610f5490611669565b80601f0160208091040260200160405190810160405280929190818152602001828054610f8090611669565b8015610fcd5780601f10610fa257610100808354040283529160200191610fcd565b820191906000526020600020905b815481529060010190602001808311610fb057829003601f168201915b50505050508152602001600282018054610fe690611669565b80601f016020809104026020016040519081016040528092919081815260200182805461101290611669565b801561105f5780601f106110345761010080835404028352916020019161105f565b820191906000526020600020905b81548152906001019060200180831161104257829003601f168201915b5050505050815260200160038201805461107890611669565b80601f01602080910402602001604051908101604052809291908181526020018280546110a490611669565b80156110f15780601f106110c6576101008083540402835291602001916110f1565b820191906000526020600020905b8154815290600101906020018083116110d457829003601f168201915b505050918352505060049190910154602090910152805190915086611117600185611845565b8151811061112757611127611858565b6020026020010181815250508060200151856001846111469190611845565b8151811061115657611156611858565b6020908102919091010152604081015184611172600185611845565b8151811061118257611182611858565b602090810291909101015260808101518361119e600185611845565b815181106111ae576111ae611858565b602090810291909101015250806111c4816116b9565b915050610f11565b5090919293565b6111db611249565b6001600160a01b0381166112405760405162461bcd60e51b815260206004820152602660248201527f4f776e61626c653a206e6577206f776e657220697320746865207a65726f206160448201526564647265737360d01b60648201526084016104f6565b6109f2816112fc565b6000546001600160a01b03163314610c5b5760405162461bcd60e51b815260206004820181905260248201527f4f776e61626c653a2063616c6c6572206973206e6f7420746865206f776e657260448201526064016104f6565b6002600154036112f55760405162461bcd60e51b815260206004820152601f60248201527f5265656e7472616e637947756172643a207265656e7472616e742063616c6c0060448201526064016104f6565b6002600155565b600080546001600160a01b038381166001600160a01b0319831681178455604051919092169283917f8be0079c531659141344cd1fd0a4f28419497f9722a3daafe3b4186f6b6457e09190a35050565b60006020828403121561135e57600080fd5b5035919050565b6000815180845260005b8181101561138b5760208185018101518683018201520161136f565b506000602082860101526020601f19601f83011685010191505092915050565b85815260a0602082015260006113c460a0830187611365565b82810360408401526113d68187611365565b905082810360608401526113ea8186611365565b9150508260808301529695505050505050565b60006020828403121561140f57600080fd5b81356001600160a01b038116811461142657600080fd5b9392505050565b6020815260006114266020830184611365565b634e487b7160e01b600052604160045260246000fd5b600082601f83011261146757600080fd5b813567ffffffffffffffff81111561148157611481611440565b604051601f8201601f19908116603f0116810167ffffffffffffffff811182821017156114b0576114b0611440565b6040528181528382016020018510156114c857600080fd5b816020850160208301376000918101602001919091529392505050565b6000806000606084860312156114fa57600080fd5b833567ffffffffffffffff81111561151157600080fd5b61151d86828701611456565b935050602084013567ffffffffffffffff81111561153a57600080fd5b61154686828701611456565b925050604084013567ffffffffffffffff81111561156357600080fd5b61156f86828701611456565b9150509250925092565b600081518084526020840193506020830160005b828110156115ab57815186526020958601959091019060010161158d565b5093949350505050565b600082825180855260208501945060208160051b8301016020850160005b8381101561160557601f198584030188526115ef838351611365565b60209889019890935091909101906001016115d3565b50909695505050505050565b6080815260006116246080830187611579565b828103602084015261163681876115b5565b9050828103604084015261164a81866115b5565b9050828103606084015261165e8185611579565b979650505050505050565b600181811c9082168061167d57607f821691505b60208210810361169d57634e487b7160e01b600052602260045260246000fd5b50919050565b634e487b7160e01b600052601160045260246000fd5b6000600182016116cb576116cb6116a3565b5060010190565b80820281158282048414176116e9576116e96116a3565b92915050565b808201808211156116e9576116e96116a3565b601f82111561174c57806000526020600020601f840160051c810160208510156117295750805b601f840160051c820191505b818110156117495760008155600101611735565b50505b505050565b815167ffffffffffffffff81111561176b5761176b611440565b61177f816117798454611669565b84611702565b6020601f8211600181146117b3576000831561179b5750848201515b600019600385901b1c1916600184901b178455611749565b600084815260208120601f198516915b828110156117e357878501518255602094850194600190920191016117c3565b50848210156118015786840151600019600387901b60f8161c191681555b50505050600190811b01905550565b8381526060602082015260006118296060830185611365565b828103604084015261183b8185611365565b9695505050505050565b818103818111156116e9576116e96116a3565b634e487b7160e01b600052603260045260246000fdfea264697066735822122035191e560c9aadcb1843427b174dc875f2731259ae0e3f018d68b27dbe25368864736f6c634300081c0033",
  "linkReferences": {},
  "deployedLinkReferences": {}
}